{
  "address": "0xf72e7A031B044508216d3819d4099e9f2640DCc8",
  "abi": [
    {
      "anonymous": false,
      "inputs": [
        {
          "indexed": false,
          "internalType": "uint256",
          "name": "maxAmount",
          "type": "uint256"
        }
      ],
      "name": "ChangeMaxAmount",
      "type": "event"
    },
    {
      "anonymous": false,
      "inputs": [
        {
          "indexed": false,
          "internalType": "uint256",
          "name": "minAmount",
          "type": "uint256"
        }
      ],
      "name": "ChangeMinAmount",
      "type": "event"
    },
    {
      "anonymous": false,
      "inputs": [
        {
          "indexed": false,
          "internalType": "address",
          "name": "minter",
          "type": "address"
        }
      ],
      "name": "ChangeMinter",
      "type": "event"
    },
    {
      "anonymous": false,
      "inputs": [
        {
          "indexed": false,
          "internalType": "uint8",
          "name": "version",
          "type": "uint8"
        }
      ],
      "name": "Initialized",
      "type": "event"
    },
    {
      "anonymous": false,
      "inputs": [
        {
          "indexed": false,
          "internalType": "address",
          "name": "locker",
          "type": "address"
        },
        {
          "indexed": false,
          "internalType": "string",
          "name": "receipt",
          "type": "string"
        },
        {
          "indexed": false,
          "internalType": "address",
          "name": "token",
          "type": "address"
        },
        {
          "indexed": false,
          "internalType": "uint256",
          "name": "amount",
          "type": "uint256"
        },
        {
          "indexed": false,
          "internalType": "string",
          "name": "tokenName",
          "type": "string"
        }
      ],
      "name": "Lock",
      "type": "event"
    },
    {
      "anonymous": false,
      "inputs": [
        {
          "indexed": true,
          "internalType": "address",
          "name": "previousOwner",
          "type": "address"
        },
        {
          "indexed": true,
          "internalType": "address",
          "name": "newOwner",
          "type": "address"
        }
      ],
      "name": "OwnershipTransferred",
      "type": "event"
    },
    {
      "anonymous": false,
      "inputs": [
        {
          "indexed": false,
          "internalType": "address",
          "name": "token",
          "type": "address"
        },
        {
          "indexed": false,
          "internalType": "bool",
          "name": "whitelist",
          "type": "bool"
        }
      ],
      "name": "SetWhitelistToken",
      "type": "event"
    },
    {
      "anonymous": false,
      "inputs": [
        {
          "indexed": false,
          "internalType": "address",
          "name": "user",
          "type": "address"
        },
        {
          "indexed": false,
          "internalType": "address",
          "name": "token",
          "type": "address"
        },
        {
          "indexed": false,
          "internalType": "uint256",
          "name": "amount",
          "type": "uint256"
        },
        {
          "indexed": false,
          "internalType": "string",
          "name": "hash",
          "type": "string"
        },
        {
          "indexed": false,
          "internalType": "uint256",
          "name": "fee",
          "type": "uint256"
        }
      ],
      "name": "Unlock",
      "type": "event"
    },
    {
      "inputs": [
        {
          "internalType": "address",
          "name": "_minter",
          "type": "address"
        }
      ],
      "name": "changeMinter",
      "outputs": [],
      "stateMutability": "nonpayable",
      "type": "function"
    },
    {
      "inputs": [
        {
          "internalType": "address",
          "name": "_minter",
          "type": "address"
        },
        {
          "internalType": "uint256",
          "name": "_minAmount",
          "type": "uint256"
        },
        {
          "internalType": "uint256",
          "name": "_maxAmount",
          "type": "uint256"
        }
      ],
      "name": "initialize",
      "outputs": [],
      "stateMutability": "nonpayable",
      "type": "function"
    },
    {
      "inputs": [
        {
          "internalType": "address",
          "name": "token",
          "type": "address"
        },
        {
          "internalType": "string",
          "name": "receipt",
          "type": "string"
        },
        {
          "internalType": "uint256",
          "name": "amount",
          "type": "uint256"
        }
      ],
      "name": "lock",
      "outputs": [],
      "stateMutability": "payable",
      "type": "function"
    },
    {
      "inputs": [],
      "name": "maxAmount",
      "outputs": [
        {
          "internalType": "uint256",
          "name": "",
          "type": "uint256"
        }
      ],
      "stateMutability": "view",
      "type": "function"
    },
    {
      "inputs": [],
      "name": "minAmount",
      "outputs": [
        {
          "internalType": "uint256",
          "name": "",
          "type": "uint256"
        }
      ],
      "stateMutability": "view",
      "type": "function"
    },
    {
      "inputs": [],
      "name": "minter",
      "outputs": [
        {
          "internalType": "address",
          "name": "",
          "type": "address"
        }
      ],
      "stateMutability": "view",
      "type": "function"
    },
    {
      "inputs": [],
      "name": "owner",
      "outputs": [
        {
          "internalType": "address",
          "name": "",
          "type": "address"
        }
      ],
      "stateMutability": "view",
      "type": "function"
    },
    {
      "inputs": [],
      "name": "renounceOwnership",
      "outputs": [],
      "stateMutability": "nonpayable",
      "type": "function"
    },
    {
      "inputs": [
        {
          "internalType": "uint256",
          "name": "max",
          "type": "uint256"
        }
      ],
      "name": "setMaxAmount",
      "outputs": [],
      "stateMutability": "nonpayable",
      "type": "function"
    },
    {
      "inputs": [
        {
          "internalType": "uint256",
          "name": "min",
          "type": "uint256"
        }
      ],
      "name": "setMinAmount",
      "outputs": [],
      "stateMutability": "nonpayable",
      "type": "function"
    },
    {
      "inputs": [
        {
          "internalType": "address",
          "name": "token",
          "type": "address"
        },
        {
          "internalType": "bool",
          "name": "whitelist",
          "type": "bool"
        }
      ],
      "name": "setWhitelistToken",
      "outputs": [],
      "stateMutability": "nonpayable",
      "type": "function"
    },
    {
      "inputs": [
        {
          "internalType": "address",
          "name": "newOwner",
          "type": "address"
        }
      ],
      "name": "transferOwnership",
      "outputs": [],
      "stateMutability": "nonpayable",
      "type": "function"
    },
    {
      "inputs": [
        {
          "internalType": "address",
          "name": "token",
          "type": "address"
        },
        {
          "internalType": "uint256",
          "name": "amount",
          "type": "uint256"
        },
        {
          "internalType": "address",
          "name": "user",
          "type": "address"
        },
        {
          "internalType": "string",
          "name": "hash",
          "type": "string"
        },
        {
          "internalType": "uint256",
          "name": "fee",
          "type": "uint256"
        }
      ],
      "name": "unlock",
      "outputs": [],
      "stateMutability": "nonpayable",
      "type": "function"
    },
    {
      "inputs": [
        {
          "internalType": "string",
          "name": "",
          "type": "string"
        }
      ],
      "name": "unlockHash",
      "outputs": [
        {
          "internalType": "bool",
          "name": "",
          "type": "bool"
        }
      ],
      "stateMutability": "view",
      "type": "function"
    },
    {
      "inputs": [
        {
          "internalType": "address",
          "name": "",
          "type": "address"
        }
      ],
      "name": "whitelistTokens",
      "outputs": [
        {
          "internalType": "bool",
          "name": "",
          "type": "bool"
        }
      ],
      "stateMutability": "view",
      "type": "function"
    }
  ],
  "transactionHash": "0x402bfc8cc553a8437350426770a60f441fa57b7be3a5ed2ce101391c48714eee",
  "args": [],
  "numDeployments": 1,
  "solcInputHash": "9e282b3fd6ca8506cd42e9acddac8830",
  "bytecode": "0x608060405234801561001057600080fd5b50611773806100206000396000f3fe6080604052600436106100e85760003560e01c80637a1ac61e1161008a5780639b2cb5d8116100595780639b2cb5d814610276578063c30f48231461028c578063e639a4ac146102c7578063f2fde38b146102e757600080fd5b80637a1ac61e146101f85780637c374f9914610218578063897b0637146102385780638da5cb5b1461025857600080fd5b80634fe47f70116100c65780634fe47f701461015f5780635f48f3931461017f5780635fb2386e146101a3578063715018a6146101e357600080fd5b806307546172146100ed5780632c4d4d181461012a57806338e611b31461014c575b600080fd5b3480156100f957600080fd5b5060975461010d906001600160a01b031681565b6040516001600160a01b0390911681526020015b60405180910390f35b34801561013657600080fd5b5061014a6101453660046112e7565b610307565b005b61014a61015a3660046113ce565b6103c8565b34801561016b57600080fd5b5061014a61017a366004611425565b61063d565b34801561018b57600080fd5b50610195609a5481565b604051908152602001610121565b3480156101af57600080fd5b506101d36101be3660046112e7565b60986020526000908152604090205460ff1681565b6040519015158152602001610121565b3480156101ef57600080fd5b5061014a61071e565b34801561020457600080fd5b5061014a61021336600461143e565b610784565b34801561022457600080fd5b5061014a61023336600461147f565b610868565b34801561024457600080fd5b5061014a610253366004611425565b610925565b34801561026457600080fd5b506033546001600160a01b031661010d565b34801561028257600080fd5b50610195609b5481565b34801561029857600080fd5b506101d36102a73660046114b6565b805160208183018101805160998252928201919093012091525460ff1681565b3480156102d357600080fd5b5061014a6102e23660046114f3565b610a06565b3480156102f357600080fd5b5061014a6103023660046112e7565b610ea8565b6033546001600160a01b031633146103665760405162461bcd60e51b815260206004820181905260248201527f4f776e61626c653a2063616c6c6572206973206e6f7420746865206f776e657260448201526064015b60405180910390fd5b6097805473ffffffffffffffffffffffffffffffffffffffff19166001600160a01b0383169081179091556040519081527fc87aeafc6e4ae6202adf4f08a76769119ae93cc129c0e0cbac08a118bc18e1ce906020015b60405180910390a150565b6001600160a01b03831660009081526098602052604090205460ff1661043b5760405162461bcd60e51b815260206004820152602260248201527f4272696467653a20746f6b656e206d75737420626520696e2077686974656c696044820152611cdd60f21b606482015260840161035d565b609a54811115801561044f5750609b548110155b61049b5760405162461bcd60e51b815260206004820152601660248201527f4272696467653a20696e76616c696420616d6f756e7400000000000000000000604482015260640161035d565b60408051808201909152600381526208aa8960eb1b60208201526001600160a01b038416610517578134146105125760405162461bcd60e51b815260206004820152601660248201527f4272696467653a20696e76616c696420616d6f756e7400000000000000000000604482015260640161035d565b6105f8565b6040516323b872dd60e01b8152336004820152306024820152604481018390526001600160a01b038516906323b872dd906064016020604051808303816000875af115801561056a573d6000803e3d6000fd5b505050506040513d601f19601f8201168201806040525081019061058e9190611563565b50836001600160a01b03166306fdde036040518163ffffffff1660e01b8152600401600060405180830381865afa1580156105cd573d6000803e3d6000fd5b505050506040513d6000823e601f3d908101601f191682016040526105f591908101906115ac565b90505b7fdb2afed7fa09277d868c7d909e59f48f8fe738cf8b88268672f81075db44e0a3338486858560405161062f95949392919061164f565b60405180910390a150505050565b6033546001600160a01b031633146106975760405162461bcd60e51b815260206004820181905260248201527f4f776e61626c653a2063616c6c6572206973206e6f7420746865206f776e6572604482015260640161035d565b609b548110156106e95760405162461bcd60e51b815260206004820152601160248201527f496e76616c6964206d696e416d6f756e74000000000000000000000000000000604482015260640161035d565b609a8190556040518181527f13cad1d1f9bc3464ddf35ddde5e0389a9edf9639f97e2fccb7e59fdeb5dcad22906020016103bd565b6033546001600160a01b031633146107785760405162461bcd60e51b815260206004820181905260248201527f4f776e61626c653a2063616c6c6572206973206e6f7420746865206f776e6572604482015260640161035d565b6107826000610f8a565b565b60006107906001610fe9565b905080156107a8576000805461ff0019166101001790555b6107b0611104565b6107b8611177565b6097805473ffffffffffffffffffffffffffffffffffffffff19166001600160a01b038616908117909155609b849055609a8390556040519081527fc87aeafc6e4ae6202adf4f08a76769119ae93cc129c0e0cbac08a118bc18e1ce9060200160405180910390a18015610862576000805461ff0019169055604051600181527f7f26b83ff96e1f2b6a682f133852f6798a09c465da95921460cefb38474024989060200161062f565b50505050565b6033546001600160a01b031633146108c25760405162461bcd60e51b815260206004820181905260248201527f4f776e61626c653a2063616c6c6572206973206e6f7420746865206f776e6572604482015260640161035d565b6001600160a01b038216600081815260986020908152604091829020805460ff19168515159081179091558251938452908301527f0a4552f1105808db6a44587c9ef0a7c4064bf620b9d843b514ad7365bd52239a910160405180910390a15050565b6033546001600160a01b0316331461097f5760405162461bcd60e51b815260206004820181905260248201527f4f776e61626c653a2063616c6c6572206973206e6f7420746865206f776e6572604482015260640161035d565b609a548111156109d15760405162461bcd60e51b815260206004820152601160248201527f496e76616c6964206d696e416d6f756e74000000000000000000000000000000604482015260640161035d565b609b8190556040518181527fbb1711a6693c8a2dfb14b13f0a1468cb1042b91bfe4e3a4b3e3d280aa255ece2906020016103bd565b6097546001600160a01b03163314610a605760405162461bcd60e51b815260206004820152601360248201527f4272696467653a204f6e6c79204d696e74657200000000000000000000000000604482015260640161035d565b6001600160a01b03851660009081526098602052604090205460ff16610ad35760405162461bcd60e51b815260206004820152602260248201527f4272696467653a20746f6b656e206d75737420626520696e2077686974656c696044820152611cdd60f21b606482015260840161035d565b609982604051610ae3919061169f565b9081526040519081900360200190205460ff1615610b435760405162461bcd60e51b815260206004820152601760248201527f4272696467653a20556e6c6f636b6564206265666f7265000000000000000000604482015260640161035d565b6001600160a01b038516610c215783471015610ba15760405162461bcd60e51b815260206004820152601660248201527f4272696467653a20696e76616c696420616d6f756e7400000000000000000000604482015260640161035d565b6001600160a01b0383166108fc610bb883876116bb565b6040518115909202916000818181858888f19350505050158015610be0573d6000803e3d6000fd5b506033546040516001600160a01b039091169082156108fc029083906000818181858888f19350505050158015610c1b573d6000803e3d6000fd5b50610e27565b6040516370a0823160e01b815230600482015284906001600160a01b038716906370a0823190602401602060405180830381865afa158015610c67573d6000803e3d6000fd5b505050506040513d601f19601f82011682018060405250810190610c8b91906116e0565b1015610cd95760405162461bcd60e51b815260206004820152601660248201527f4272696467653a20496e76616c696420616d6f756e7400000000000000000000604482015260640161035d565b6001600160a01b03851663a9059cbb84610cf384886116bb565b6040517fffffffff0000000000000000000000000000000000000000000000000000000060e085901b1681526001600160a01b03909216600483015260248201526044016020604051808303816000875af1158015610d56573d6000803e3d6000fd5b505050506040513d601f19601f82011682018060405250810190610d7a9190611563565b50846001600160a01b031663a9059cbb610d9c6033546001600160a01b031690565b6040517fffffffff0000000000000000000000000000000000000000000000000000000060e084901b1681526001600160a01b039091166004820152602481018490526044016020604051808303816000875af1158015610e01573d6000803e3d6000fd5b505050506040513d601f19601f82011682018060405250810190610e259190611563565b505b6001609983604051610e39919061169f565b908152604051908190036020019020805491151560ff199092169190911790557f7fbd879c56999418e89f051bc4891f2af0bac78cf32eb10b1cf3640ae214358f8386610e8684886116bb565b8585604051610e999594939291906116f9565b60405180910390a15050505050565b6033546001600160a01b03163314610f025760405162461bcd60e51b815260206004820181905260248201527f4f776e61626c653a2063616c6c6572206973206e6f7420746865206f776e6572604482015260640161035d565b6001600160a01b038116610f7e5760405162461bcd60e51b815260206004820152602660248201527f4f776e61626c653a206e6577206f776e657220697320746865207a65726f206160448201527f6464726573730000000000000000000000000000000000000000000000000000606482015260840161035d565b610f8781610f8a565b50565b603380546001600160a01b0383811673ffffffffffffffffffffffffffffffffffffffff19831681179093556040519116919082907f8be0079c531659141344cd1fd0a4f28419497f9722a3daafe3b4186f6b6457e090600090a35050565b60008054610100900460ff1615611077578160ff16600114801561100c5750303b155b61106f5760405162461bcd60e51b815260206004820152602e60248201527f496e697469616c697a61626c653a20636f6e747261637420697320616c72656160448201526d191e481a5b9a5d1a585b1a5e995960921b606482015260840161035d565b506000919050565b60005460ff8084169116106110e55760405162461bcd60e51b815260206004820152602e60248201527f496e697469616c697a61626c653a20636f6e747261637420697320616c72656160448201526d191e481a5b9a5d1a585b1a5e995960921b606482015260840161035d565b506000805460ff191660ff92909216919091179055600190565b919050565b600054610100900460ff1661116f5760405162461bcd60e51b815260206004820152602b60248201527f496e697469616c697a61626c653a20636f6e7472616374206973206e6f74206960448201526a6e697469616c697a696e6760a81b606482015260840161035d565b6107826111ea565b600054610100900460ff166111e25760405162461bcd60e51b815260206004820152602b60248201527f496e697469616c697a61626c653a20636f6e7472616374206973206e6f74206960448201526a6e697469616c697a696e6760a81b606482015260840161035d565b61078261125e565b600054610100900460ff166112555760405162461bcd60e51b815260206004820152602b60248201527f496e697469616c697a61626c653a20636f6e7472616374206973206e6f74206960448201526a6e697469616c697a696e6760a81b606482015260840161035d565b61078233610f8a565b600054610100900460ff166112c95760405162461bcd60e51b815260206004820152602b60248201527f496e697469616c697a61626c653a20636f6e7472616374206973206e6f74206960448201526a6e697469616c697a696e6760a81b606482015260840161035d565b6001606555565b80356001600160a01b03811681146110ff57600080fd5b6000602082840312156112f957600080fd5b611302826112d0565b9392505050565b634e487b7160e01b600052604160045260246000fd5b604051601f8201601f1916810167ffffffffffffffff8111828210171561134857611348611309565b604052919050565b600067ffffffffffffffff82111561136a5761136a611309565b50601f01601f191660200190565b600082601f83011261138957600080fd5b813561139c61139782611350565b61131f565b8181528460208386010111156113b157600080fd5b816020850160208301376000918101602001919091529392505050565b6000806000606084860312156113e357600080fd5b6113ec846112d0565b9250602084013567ffffffffffffffff81111561140857600080fd5b61141486828701611378565b925050604084013590509250925092565b60006020828403121561143757600080fd5b5035919050565b60008060006060848603121561145357600080fd5b61145c846112d0565b95602085013595506040909401359392505050565b8015158114610f8757600080fd5b6000806040838503121561149257600080fd5b61149b836112d0565b915060208301356114ab81611471565b809150509250929050565b6000602082840312156114c857600080fd5b813567ffffffffffffffff8111156114df57600080fd5b6114eb84828501611378565b949350505050565b600080600080600060a0868803121561150b57600080fd5b611514866112d0565b945060208601359350611529604087016112d0565b9250606086013567ffffffffffffffff81111561154557600080fd5b61155188828901611378565b95989497509295608001359392505050565b60006020828403121561157557600080fd5b815161130281611471565b60005b8381101561159b578181015183820152602001611583565b838111156108625750506000910152565b6000602082840312156115be57600080fd5b815167ffffffffffffffff8111156115d557600080fd5b8201601f810184136115e657600080fd5b80516115f461139782611350565b81815285602083850101111561160957600080fd5b61161a826020830160208601611580565b95945050505050565b6000815180845261163b816020860160208601611580565b601f01601f19169290920160200192915050565b60006001600160a01b03808816835260a0602084015261167260a0840188611623565b818716604085015285606085015283810360808501526116928186611623565b9998505050505050505050565b600082516116b1818460208701611580565b9190910192915050565b6000828210156116db57634e487b7160e01b600052601160045260246000fd5b500390565b6000602082840312156116f257600080fd5b5051919050565b60006001600160a01b03808816835280871660208401525084604083015260a0606083015261172b60a0830185611623565b9050826080830152969550505050505056fea2646970667358221220c1e30d953492070804be5859fce51955ccbd34404dbfb7bf589187eca244239964736f6c634300080f0033",
  "devdoc": {
    "kind": "dev",
    "methods": {
      "owner()": {
        "details": "Returns the address of the current owner."
      },
      "renounceOwnership()": {
        "details": "Leaves the contract without owner. It will not be possible to call `onlyOwner` functions anymore. Can only be called by the current owner. NOTE: Renouncing ownership will leave the contract without an owner, thereby removing any functionality that is only available to the owner."
      },
      "transferOwnership(address)": {
        "details": "Transfers ownership of the contract to a new account (`newOwner`). Can only be called by the current owner."
      }
    },
    "version": 1
  },
  "userdoc": {
    "kind": "user",
    "methods": {},
    "version": 1
  },
  "storageLayout": {
    "storage": [
      {
        "astId": 130,
        "contract": "contracts/Bridge.sol:Bridge",
        "label": "_initialized",
        "offset": 0,
        "slot": "0",
        "type": "t_uint8"
      },
      {
        "astId": 133,
        "contract": "contracts/Bridge.sol:Bridge",
        "label": "_initializing",
        "offset": 1,
        "slot": "0",
        "type": "t_bool"
      },
      {
        "astId": 608,
        "contract": "contracts/Bridge.sol:Bridge",
        "label": "__gap",
        "offset": 0,
        "slot": "1",
        "type": "t_array(t_uint256)50_storage"
      },
      {
        "astId": 10,
        "contract": "contracts/Bridge.sol:Bridge",
        "label": "_owner",
        "offset": 0,
        "slot": "51",
        "type": "t_address"
      },
      {
        "astId": 122,
        "contract": "contracts/Bridge.sol:Bridge",
        "label": "__gap",
        "offset": 0,
        "slot": "52",
        "type": "t_array(t_uint256)49_storage"
      },
      {
        "astId": 279,
        "contract": "contracts/Bridge.sol:Bridge",
        "label": "_status",
        "offset": 0,
        "slot": "101",
        "type": "t_uint256"
      },
      {
        "astId": 323,
        "contract": "contracts/Bridge.sol:Bridge",
        "label": "__gap",
        "offset": 0,
        "slot": "102",
        "type": "t_array(t_uint256)49_storage"
      },
      {
        "astId": 703,
        "contract": "contracts/Bridge.sol:Bridge",
        "label": "minter",
        "offset": 0,
        "slot": "151",
        "type": "t_address"
      },
      {
        "astId": 707,
        "contract": "contracts/Bridge.sol:Bridge",
        "label": "whitelistTokens",
        "offset": 0,
        "slot": "152",
        "type": "t_mapping(t_address,t_bool)"
      },
      {
        "astId": 711,
        "contract": "contracts/Bridge.sol:Bridge",
        "label": "unlockHash",
        "offset": 0,
        "slot": "153",
        "type": "t_mapping(t_string_memory_ptr,t_bool)"
      },
      {
        "astId": 713,
        "contract": "contracts/Bridge.sol:Bridge",
        "label": "maxAmount",
        "offset": 0,
        "slot": "154",
        "type": "t_uint256"
      },
      {
        "astId": 715,
        "contract": "contracts/Bridge.sol:Bridge",
        "label": "minAmount",
        "offset": 0,
        "slot": "155",
        "type": "t_uint256"
      }
    ],
    "types": {
      "t_address": {
        "encoding": "inplace",
        "label": "address",
        "numberOfBytes": "20"
      },
      "t_array(t_uint256)49_storage": {
        "base": "t_uint256",
        "encoding": "inplace",
        "label": "uint256[49]",
        "numberOfBytes": "1568"
      },
      "t_array(t_uint256)50_storage": {
        "base": "t_uint256",
        "encoding": "inplace",
        "label": "uint256[50]",
        "numberOfBytes": "1600"
      },
      "t_bool": {
        "encoding": "inplace",
        "label": "bool",
        "numberOfBytes": "1"
      },
      "t_mapping(t_address,t_bool)": {
        "encoding": "mapping",
        "key": "t_address",
        "label": "mapping(address => bool)",
        "numberOfBytes": "32",
        "value": "t_bool"
      },
      "t_mapping(t_string_memory_ptr,t_bool)": {
        "encoding": "mapping",
        "key": "t_string_memory_ptr",
        "label": "mapping(string => bool)",
        "numberOfBytes": "32",
        "value": "t_bool"
      },
      "t_string_memory_ptr": {
        "encoding": "bytes",
        "label": "string",
        "numberOfBytes": "32"
      },
      "t_uint256": {
        "encoding": "inplace",
        "label": "uint256",
        "numberOfBytes": "32"
      },
      "t_uint8": {
        "encoding": "inplace",
        "label": "uint8",
        "numberOfBytes": "1"
      }
    }
  }
}