{
  "address": "0xF53914029B56566BdCd6De8690677A8b8516f134",
  "abi": [
    {
      "anonymous": false,
      "inputs": [
        {
          "indexed": false,
          "internalType": "uint256",
          "name": "maxAmount",
          "type": "uint256"
        }
      ],
      "name": "ChangeMaxAmount",
      "type": "event"
    },
    {
      "anonymous": false,
      "inputs": [
        {
          "indexed": false,
          "internalType": "uint256",
          "name": "minAmount",
          "type": "uint256"
        }
      ],
      "name": "ChangeMinAmount",
      "type": "event"
    },
    {
      "anonymous": false,
      "inputs": [
        {
          "indexed": false,
          "internalType": "address",
          "name": "minter",
          "type": "address"
        }
      ],
      "name": "ChangeMinter",
      "type": "event"
    },
    {
      "anonymous": false,
      "inputs": [
        {
          "indexed": false,
          "internalType": "uint256",
          "name": "newThreshold",
          "type": "uint256"
        }
      ],
      "name": "ChangeThreshold",
      "type": "event"
    },
    {
      "anonymous": false,
      "inputs": [
        {
          "indexed": false,
          "internalType": "uint8",
          "name": "version",
          "type": "uint8"
        }
      ],
      "name": "Initialized",
      "type": "event"
    },
    {
      "anonymous": false,
      "inputs": [
        {
          "indexed": false,
          "internalType": "address",
          "name": "locker",
          "type": "address"
        },
        {
          "indexed": false,
          "internalType": "string",
          "name": "receipt",
          "type": "string"
        },
        {
          "indexed": false,
          "internalType": "address",
          "name": "token",
          "type": "address"
        },
        {
          "indexed": false,
          "internalType": "uint256",
          "name": "amount",
          "type": "uint256"
        },
        {
          "indexed": false,
          "internalType": "string",
          "name": "tokenName",
          "type": "string"
        }
      ],
      "name": "Lock",
      "type": "event"
    },
    {
      "anonymous": false,
      "inputs": [
        {
          "indexed": true,
          "internalType": "address",
          "name": "previousOwner",
          "type": "address"
        },
        {
          "indexed": true,
          "internalType": "address",
          "name": "newOwner",
          "type": "address"
        }
      ],
      "name": "OwnershipTransferred",
      "type": "event"
    },
    {
      "anonymous": false,
      "inputs": [
        {
          "indexed": false,
          "internalType": "address",
          "name": "token",
          "type": "address"
        },
        {
          "indexed": false,
          "internalType": "bool",
          "name": "whitelist",
          "type": "bool"
        }
      ],
      "name": "SetWhitelistToken",
      "type": "event"
    },
    {
      "anonymous": false,
      "inputs": [
        {
          "indexed": false,
          "internalType": "address",
          "name": "user",
          "type": "address"
        },
        {
          "indexed": false,
          "internalType": "address",
          "name": "token",
          "type": "address"
        },
        {
          "indexed": false,
          "internalType": "uint256",
          "name": "amount",
          "type": "uint256"
        },
        {
          "indexed": false,
          "internalType": "string",
          "name": "hash",
          "type": "string"
        },
        {
          "indexed": false,
          "internalType": "uint256",
          "name": "fee",
          "type": "uint256"
        }
      ],
      "name": "Unlock",
      "type": "event"
    },
    {
      "inputs": [],
      "name": "UNLOCK_HASH",
      "outputs": [
        {
          "internalType": "bytes32",
          "name": "",
          "type": "bytes32"
        }
      ],
      "stateMutability": "view",
      "type": "function"
    },
    {
      "inputs": [
        {
          "internalType": "bytes32",
          "name": "_digest",
          "type": "bytes32"
        },
        {
          "internalType": "bytes",
          "name": "_signature",
          "type": "bytes"
        }
      ],
      "name": "_getSigner",
      "outputs": [
        {
          "internalType": "address",
          "name": "",
          "type": "address"
        }
      ],
      "stateMutability": "view",
      "type": "function"
    },
    {
      "inputs": [
        {
          "internalType": "address[]",
          "name": "_validators",
          "type": "address[]"
        }
      ],
      "name": "addListValidator",
      "outputs": [],
      "stateMutability": "nonpayable",
      "type": "function"
    },
    {
      "inputs": [
        {
          "internalType": "address",
          "name": "_minter",
          "type": "address"
        }
      ],
      "name": "changeMinter",
      "outputs": [],
      "stateMutability": "nonpayable",
      "type": "function"
    },
    {
      "inputs": [
        {
          "internalType": "uint256",
          "name": "_newThreshold",
          "type": "uint256"
        }
      ],
      "name": "changeThreshold",
      "outputs": [],
      "stateMutability": "nonpayable",
      "type": "function"
    },
    {
      "inputs": [
        {
          "internalType": "address",
          "name": "token",
          "type": "address"
        },
        {
          "internalType": "uint256",
          "name": "amount",
          "type": "uint256"
        },
        {
          "internalType": "address",
          "name": "user",
          "type": "address"
        },
        {
          "internalType": "string",
          "name": "hash",
          "type": "string"
        },
        {
          "internalType": "uint256",
          "name": "fee",
          "type": "uint256"
        }
      ],
      "name": "getUnlockHash",
      "outputs": [
        {
          "internalType": "bytes32",
          "name": "_unlockHash",
          "type": "bytes32"
        }
      ],
      "stateMutability": "view",
      "type": "function"
    },
    {
      "inputs": [
        {
          "internalType": "address",
          "name": "_minter",
          "type": "address"
        },
        {
          "internalType": "uint256",
          "name": "_minAmount",
          "type": "uint256"
        },
        {
          "internalType": "uint256",
          "name": "_maxAmount",
          "type": "uint256"
        },
        {
          "internalType": "address[]",
          "name": "_validators",
          "type": "address[]"
        },
        {
          "internalType": "uint256",
          "name": "_threshold",
          "type": "uint256"
        }
      ],
      "name": "initialize",
      "outputs": [],
      "stateMutability": "nonpayable",
      "type": "function"
    },
    {
      "inputs": [
        {
          "internalType": "uint256",
          "name": "totalSig",
          "type": "uint256"
        }
      ],
      "name": "isValidThreshold",
      "outputs": [
        {
          "internalType": "bool",
          "name": "",
          "type": "bool"
        }
      ],
      "stateMutability": "view",
      "type": "function"
    },
    {
      "inputs": [
        {
          "internalType": "address",
          "name": "token",
          "type": "address"
        },
        {
          "internalType": "string",
          "name": "receipt",
          "type": "string"
        },
        {
          "internalType": "uint256",
          "name": "amount",
          "type": "uint256"
        }
      ],
      "name": "lock",
      "outputs": [],
      "stateMutability": "payable",
      "type": "function"
    },
    {
      "inputs": [],
      "name": "maxAmount",
      "outputs": [
        {
          "internalType": "uint256",
          "name": "",
          "type": "uint256"
        }
      ],
      "stateMutability": "view",
      "type": "function"
    },
    {
      "inputs": [],
      "name": "minAmount",
      "outputs": [
        {
          "internalType": "uint256",
          "name": "",
          "type": "uint256"
        }
      ],
      "stateMutability": "view",
      "type": "function"
    },
    {
      "inputs": [],
      "name": "minter",
      "outputs": [
        {
          "internalType": "address",
          "name": "",
          "type": "address"
        }
      ],
      "stateMutability": "view",
      "type": "function"
    },
    {
      "inputs": [],
      "name": "owner",
      "outputs": [
        {
          "internalType": "address",
          "name": "",
          "type": "address"
        }
      ],
      "stateMutability": "view",
      "type": "function"
    },
    {
      "inputs": [],
      "name": "renounceOwnership",
      "outputs": [],
      "stateMutability": "nonpayable",
      "type": "function"
    },
    {
      "inputs": [
        {
          "internalType": "uint256",
          "name": "max",
          "type": "uint256"
        }
      ],
      "name": "setMaxAmount",
      "outputs": [],
      "stateMutability": "nonpayable",
      "type": "function"
    },
    {
      "inputs": [
        {
          "internalType": "uint256",
          "name": "min",
          "type": "uint256"
        }
      ],
      "name": "setMinAmount",
      "outputs": [],
      "stateMutability": "nonpayable",
      "type": "function"
    },
    {
      "inputs": [
        {
          "internalType": "uint256",
          "name": "min",
          "type": "uint256"
        },
        {
          "internalType": "uint256",
          "name": "max",
          "type": "uint256"
        }
      ],
      "name": "setMinMaxAmount",
      "outputs": [],
      "stateMutability": "nonpayable",
      "type": "function"
    },
    {
      "inputs": [
        {
          "internalType": "address",
          "name": "token",
          "type": "address"
        },
        {
          "internalType": "bool",
          "name": "whitelist",
          "type": "bool"
        }
      ],
      "name": "setWhitelistToken",
      "outputs": [],
      "stateMutability": "nonpayable",
      "type": "function"
    },
    {
      "inputs": [],
      "name": "threshold",
      "outputs": [
        {
          "internalType": "uint256",
          "name": "",
          "type": "uint256"
        }
      ],
      "stateMutability": "view",
      "type": "function"
    },
    {
      "inputs": [
        {
          "internalType": "address",
          "name": "newOwner",
          "type": "address"
        }
      ],
      "name": "transferOwnership",
      "outputs": [],
      "stateMutability": "nonpayable",
      "type": "function"
    },
    {
      "inputs": [
        {
          "internalType": "address",
          "name": "token",
          "type": "address"
        },
        {
          "internalType": "uint256",
          "name": "amount",
          "type": "uint256"
        },
        {
          "internalType": "address",
          "name": "user",
          "type": "address"
        },
        {
          "internalType": "string",
          "name": "hash",
          "type": "string"
        },
        {
          "internalType": "uint256",
          "name": "fee",
          "type": "uint256"
        },
        {
          "internalType": "bytes[]",
          "name": "_signatures",
          "type": "bytes[]"
        }
      ],
      "name": "unlock",
      "outputs": [],
      "stateMutability": "nonpayable",
      "type": "function"
    },
    {
      "inputs": [
        {
          "internalType": "string",
          "name": "",
          "type": "string"
        }
      ],
      "name": "unlockHash",
      "outputs": [
        {
          "internalType": "bool",
          "name": "",
          "type": "bool"
        }
      ],
      "stateMutability": "view",
      "type": "function"
    },
    {
      "inputs": [
        {
          "internalType": "address",
          "name": "",
          "type": "address"
        }
      ],
      "name": "validators",
      "outputs": [
        {
          "internalType": "bool",
          "name": "",
          "type": "bool"
        }
      ],
      "stateMutability": "view",
      "type": "function"
    },
    {
      "inputs": [
        {
          "internalType": "address",
          "name": "",
          "type": "address"
        }
      ],
      "name": "whitelistTokens",
      "outputs": [
        {
          "internalType": "bool",
          "name": "",
          "type": "bool"
        }
      ],
      "stateMutability": "view",
      "type": "function"
    },
    {
      "inputs": [
        {
          "internalType": "uint256",
          "name": "amount",
          "type": "uint256"
        }
      ],
      "name": "withdrawETH",
      "outputs": [],
      "stateMutability": "nonpayable",
      "type": "function"
    }
  ],
  "transactionHash": "0x31358045b071efcc8bd1e0131415d78950e98773259a61a84b5af4f1a9dc496a",
  "args": [],
  "numDeployments": 1,
  "solcInputHash": "edbb95705d1cc326970c5e7f52681653",
  "bytecode": "0x608060405234801561001057600080fd5b5061286c806100206000396000f3fe6080604052600436106101965760003560e01c806379b4cdad116100e1578063cc6e5c0c1161008a578063eb74de1e11610064578063eb74de1e1461047f578063f14210a61461049f578063f2fde38b146104bf578063fa52c7d8146104df57600080fd5b8063cc6e5c0c1461041f578063d02c5b461461043f578063d55a76d61461045f57600080fd5b80638da5cb5b116100bb5780638da5cb5b146103b05780639b2cb5d8146103ce578063c30f4823146103e457600080fd5b806379b4cdad146103505780637c374f9914610370578063897b06371461039057600080fd5b80634fe47f70116101435780635fb2386e1161011d5780635fb2386e146102db578063694e80c31461031b578063715018a61461033b57600080fd5b80634fe47f701461028557806354b6ba24146102a55780635f48f393146102c557600080fd5b80632d84c3e8116101745780632d84c3e81461023c57806338e611b31461025c57806342cde4e81461026f57600080fd5b8063075461721461019b57806309e75a16146101d85780632c4d4d181461021a575b600080fd5b3480156101a757600080fd5b5060cb546101bb906001600160a01b031681565b6040516001600160a01b0390911681526020015b60405180910390f35b3480156101e457600080fd5b5061020c7f3cee1d988ede3e549baff47c6a9fbc95855d7ffb3c9b566b519126dae0d5a63e81565b6040519081526020016101cf565b34801561022657600080fd5b5061023a610235366004612102565b61050f565b005b34801561024857600080fd5b506101bb6102573660046121e2565b6105be565b61023a61026a366004612229565b6105d1565b34801561027b57600080fd5b5061020c60d05481565b34801561029157600080fd5b5061023a6102a0366004612280565b610846565b3480156102b157600080fd5b5061023a6102c036600461232a565b610909565b3480156102d157600080fd5b5061020c60ce5481565b3480156102e757600080fd5b5061030b6102f6366004612102565b60cc6020526000908152604090205460ff1681565b60405190151581526020016101cf565b34801561032757600080fd5b5061023a610336366004612280565b610b12565b34801561034757600080fd5b5061023a610b8f565b34801561035c57600080fd5b5061030b61036b366004612280565b610be3565b34801561037c57600080fd5b5061023a61038b3660046123a1565b610bfe565b34801561039c57600080fd5b5061023a6103ab366004612280565b610ca9565b3480156103bc57600080fd5b506033546001600160a01b03166101bb565b3480156103da57600080fd5b5061020c60cf5481565b3480156103f057600080fd5b5061030b6103ff3660046123d8565b805160208183018101805160cd8252928201919093012091525460ff1681565b34801561042b57600080fd5b5061020c61043a366004612415565b610d6c565b34801561044b57600080fd5b5061023a61045a366004612473565b610e1b565b34801561046b57600080fd5b5061023a61047a3660046124a8565b610e6f565b34801561048b57600080fd5b5061023a61049a3660046125b1565b611555565b3480156104ab57600080fd5b5061023a6104ba366004612280565b6115e9565b3480156104cb57600080fd5b5061023a6104da366004612102565b6116b2565b3480156104eb57600080fd5b5061030b6104fa366004612102565b60d16020526000908152604090205460ff1681565b6033546001600160a01b0316331461055c5760405162461bcd60e51b8152602060048201819052602482015260008051602061281783398151915260448201526064015b60405180910390fd5b60cb805473ffffffffffffffffffffffffffffffffffffffff19166001600160a01b0383169081179091556040519081527fc87aeafc6e4ae6202adf4f08a76769119ae93cc129c0e0cbac08a118bc18e1ce906020015b60405180910390a150565b60006105ca838361177f565b9392505050565b6001600160a01b038316600090815260cc602052604090205460ff166106445760405162461bcd60e51b815260206004820152602260248201527f4272696467653a20746f6b656e206d75737420626520696e2077686974656c696044820152611cdd60f21b6064820152608401610553565b60ce548111158015610658575060cf548110155b6106a45760405162461bcd60e51b815260206004820152601660248201527f4272696467653a20696e76616c696420616d6f756e74000000000000000000006044820152606401610553565b60408051808201909152600381526208aa8960eb1b60208201526001600160a01b0384166107205781341461071b5760405162461bcd60e51b815260206004820152601660248201527f4272696467653a20696e76616c696420616d6f756e74000000000000000000006044820152606401610553565b610801565b6040516323b872dd60e01b8152336004820152306024820152604481018390526001600160a01b038516906323b872dd906064016020604051808303816000875af1158015610773573d6000803e3d6000fd5b505050506040513d601f19601f8201168201806040525081019061079791906125d3565b50836001600160a01b03166306fdde036040518163ffffffff1660e01b8152600401600060405180830381865afa1580156107d6573d6000803e3d6000fd5b505050506040513d6000823e601f3d908101601f191682016040526107fe9190810190612620565b90505b7fdb2afed7fa09277d868c7d909e59f48f8fe738cf8b88268672f81075db44e0a333848685856040516108389594939291906126c3565b60405180910390a150505050565b6033546001600160a01b0316331461088e5760405162461bcd60e51b815260206004820181905260248201526000805160206128178339815191526044820152606401610553565b60cf548110156108d45760405162461bcd60e51b8152602060048201526011602482015270125b9d985b1a59081b5a5b905b5bdd5b9d607a1b6044820152606401610553565b60ce8190556040518181527f13cad1d1f9bc3464ddf35ddde5e0389a9edf9639f97e2fccb7e59fdeb5dcad22906020016105b3565b600061091560016117a3565b9050801561092d576000805461ff0019166101001790555b6109356118b6565b61093d611929565b6109b16040518060400160405280600a81526020017f4d696e61427269646765000000000000000000000000000000000000000000008152506040518060400160405280600581526020017f312e302e3000000000000000000000000000000000000000000000000000000081525061199c565b60cb805473ffffffffffffffffffffffffffffffffffffffff19166001600160a01b03881617905560cf85905560ce84905560005b8351811015610a4957600160d16000868481518110610a0757610a07612713565b6020908102919091018101516001600160a01b03168252810191909152604001600020805460ff1916911515919091179055610a428161273f565b90506109e6565b5060d08290556000805260cc60209081527f435daec636ce435a90bde0aeec309a303a359a854c5a51b7d6a5a941d6db6094805460ff1916600117905560cb546040516001600160a01b0390911681527fc87aeafc6e4ae6202adf4f08a76769119ae93cc129c0e0cbac08a118bc18e1ce910160405180910390a18015610b0a576000805461ff0019169055604051600181527f7f26b83ff96e1f2b6a682f133852f6798a09c465da95921460cefb38474024989060200160405180910390a15b505050505050565b6033546001600160a01b03163314610b5a5760405162461bcd60e51b815260206004820181905260248201526000805160206128178339815191526044820152606401610553565b60d08190556040518181527f9947ac58e204d2da07b9748298663b3b77da7fb0638201d778987ded7c90fbaa906020016105b3565b6033546001600160a01b03163314610bd75760405162461bcd60e51b815260206004820181905260248201526000805160206128178339815191526044820152606401610553565b610be16000611a11565b565b600060d0548210610bf657506001919050565b506000919050565b6033546001600160a01b03163314610c465760405162461bcd60e51b815260206004820181905260248201526000805160206128178339815191526044820152606401610553565b6001600160a01b038216600081815260cc6020908152604091829020805460ff19168515159081179091558251938452908301527f0a4552f1105808db6a44587c9ef0a7c4064bf620b9d843b514ad7365bd52239a910160405180910390a15050565b6033546001600160a01b03163314610cf15760405162461bcd60e51b815260206004820181905260248201526000805160206128178339815191526044820152606401610553565b60ce54811115610d375760405162461bcd60e51b8152602060048201526011602482015270125b9d985b1a59081b5a5b905b5bdd5b9d607a1b6044820152606401610553565b60cf8190556040518181527fbb1711a6693c8a2dfb14b13f0a1468cb1042b91bfe4e3a4b3e3d280aa255ece2906020016105b3565b6000610e117f3cee1d988ede3e549baff47c6a9fbc95855d7ffb3c9b566b519126dae0d5a63e87878787604051602001610da69190612758565b60408051808303601f190181528282528051602091820120908301969096526001600160a01b03948516908201526060810192909252909116608082015260a081019190915260c0810184905260e00160405160208183030381529060405280519060200120611a70565b9695505050505050565b6033546001600160a01b03163314610e635760405162461bcd60e51b815260206004820181905260248201526000805160206128178339815191526044820152606401610553565b610e6c81611ac4565b50565b60cb546001600160a01b03163314610ec95760405162461bcd60e51b815260206004820152601360248201527f4272696467653a204f6e6c79204d696e746572000000000000000000000000006044820152606401610553565b600260655403610f1b5760405162461bcd60e51b815260206004820152601f60248201527f5265656e7472616e637947756172643a207265656e7472616e742063616c6c006044820152606401610553565b60026065556001600160a01b038616600090815260cc602052604090205460ff16610f935760405162461bcd60e51b815260206004820152602260248201527f4272696467653a20746f6b656e206d75737420626520696e2077686974656c696044820152611cdd60f21b6064820152608401610553565b60cd83604051610fa39190612758565b9081526040519081900360200190205460ff16156110035760405162461bcd60e51b815260206004820152601760248201527f4272696467653a20556e6c6f636b6564206265666f72650000000000000000006044820152606401610553565b61100d8151610be3565b6110595760405162461bcd60e51b815260206004820152601960248201527f5369676e61747572653a20496e76616c6964204c656e677468000000000000006044820152606401610553565b60006110688787878787610d6c565b90506110726120cb565b60005b83518110156111e757600084828151811061109257611092612713565b6020026020010151905060006110a885836105be565b6001600160a01b038116600090815260d1602052604090205490915060ff166111135760405162461bcd60e51b815260206004820152601160248201527f496e76616c6964207369676e61747572650000000000000000000000000000006044820152606401610553565b60005b6103e88110156111aa57816001600160a01b031685826103e8811061113d5761113d612713565b60200201516001600160a01b0316036111985760405162461bcd60e51b815260206004820152601860248201527f496e76616c6964205369676e6174757265204c656e67746800000000000000006044820152606401610553565b806111a28161273f565b915050611116565b508084846103e881106111bf576111bf612713565b6001600160a01b039092166020929092020152508190506111df8161273f565b915050611075565b50600160cd866040516111fa9190612758565b908152604051908190036020019020805491151560ff199092169190911790556001600160a01b0388166112f857864710156112785760405162461bcd60e51b815260206004820152601660248201527f4272696467653a20696e76616c696420616d6f756e74000000000000000000006044820152606401610553565b6001600160a01b0386166108fc61128f868a612774565b6040518115909202916000818181858888f193505050501580156112b7573d6000803e3d6000fd5b506033546040516001600160a01b039091169085156108fc029086906000818181858888f193505050501580156112f2573d6000803e3d6000fd5b506114fe565b6040516370a0823160e01b815230600482015287906001600160a01b038a16906370a0823190602401602060405180830381865afa15801561133e573d6000803e3d6000fd5b505050506040513d601f19601f82011682018060405250810190611362919061278b565b10156113b05760405162461bcd60e51b815260206004820152601660248201527f4272696467653a20496e76616c696420616d6f756e74000000000000000000006044820152606401610553565b6001600160a01b03881663a9059cbb876113ca878b612774565b6040517fffffffff0000000000000000000000000000000000000000000000000000000060e085901b1681526001600160a01b03909216600483015260248201526044016020604051808303816000875af115801561142d573d6000803e3d6000fd5b505050506040513d601f19601f8201168201806040525081019061145191906125d3565b50876001600160a01b031663a9059cbb6114736033546001600160a01b031690565b6040517fffffffff0000000000000000000000000000000000000000000000000000000060e084901b1681526001600160a01b039091166004820152602481018790526044016020604051808303816000875af11580156114d8573d6000803e3d6000fd5b505050506040513d601f19601f820116820180604052508101906114fc91906125d3565b505b7f7fbd879c56999418e89f051bc4891f2af0bac78cf32eb10b1cf3640ae214358f868961152b878b612774565b888860405161153e9594939291906127a4565b60405180910390a150506001606555505050505050565b6033546001600160a01b0316331461159d5760405162461bcd60e51b815260206004820181905260248201526000805160206128178339815191526044820152606401610553565b818110156115e15760405162461bcd60e51b8152602060048201526011602482015270125b9d985b1a59081b5a5b905b5bdd5b9d607a1b6044820152606401610553565b60ce5560cf55565b6033546001600160a01b031633146116315760405162461bcd60e51b815260206004820181905260248201526000805160206128178339815191526044820152606401610553565b804710156116815760405162461bcd60e51b815260206004820152601c60248201527f4272696467653a20696e73756666696369656e742062616c616e6365000000006044820152606401610553565b604051339082156108fc029083906000818181858888f193505050501580156116ae573d6000803e3d6000fd5b5050565b6033546001600160a01b031633146116fa5760405162461bcd60e51b815260206004820181905260248201526000805160206128178339815191526044820152606401610553565b6001600160a01b0381166117765760405162461bcd60e51b815260206004820152602660248201527f4f776e61626c653a206e6577206f776e657220697320746865207a65726f206160448201527f64647265737300000000000000000000000000000000000000000000000000006064820152608401610553565b610e6c81611a11565b600080600061178e8585611b7d565b9150915061179b81611beb565b509392505050565b60008054610100900460ff1615611829578160ff1660011480156117c65750303b155b610bf65760405162461bcd60e51b815260206004820152602e60248201527f496e697469616c697a61626c653a20636f6e747261637420697320616c72656160448201526d191e481a5b9a5d1a585b1a5e995960921b6064820152608401610553565b60005460ff8084169116106118975760405162461bcd60e51b815260206004820152602e60248201527f496e697469616c697a61626c653a20636f6e747261637420697320616c72656160448201526d191e481a5b9a5d1a585b1a5e995960921b6064820152608401610553565b506000805460ff191660ff92909216919091179055600190565b919050565b600054610100900460ff166119215760405162461bcd60e51b815260206004820152602b60248201527f496e697469616c697a61626c653a20636f6e7472616374206973206e6f74206960448201526a6e697469616c697a696e6760a81b6064820152608401610553565b610be1611da1565b600054610100900460ff166119945760405162461bcd60e51b815260206004820152602b60248201527f496e697469616c697a61626c653a20636f6e7472616374206973206e6f74206960448201526a6e697469616c697a696e6760a81b6064820152608401610553565b610be1611e15565b600054610100900460ff16611a075760405162461bcd60e51b815260206004820152602b60248201527f496e697469616c697a61626c653a20636f6e7472616374206973206e6f74206960448201526a6e697469616c697a696e6760a81b6064820152608401610553565b6116ae8282611e87565b603380546001600160a01b0383811673ffffffffffffffffffffffffffffffffffffffff19831681179093556040519116919082907f8be0079c531659141344cd1fd0a4f28419497f9722a3daafe3b4186f6b6457e090600090a35050565b6000611abe611a7d611f0c565b8360405161190160f01b6020820152602281018390526042810182905260009060620160405160208183030381529060405280519060200120905092915050565b92915050565b6000815111611b155760405162461bcd60e51b815260206004820152600e60248201527f496e76616c6964206c656e6774680000000000000000000000000000000000006044820152606401610553565b60005b81518110156116ae57600160d16000848481518110611b3957611b39612713565b6020908102919091018101516001600160a01b03168252810191909152604001600020805460ff191691151591909117905580611b758161273f565b915050611b18565b6000808251604103611bb35760208301516040840151606085015160001a611ba787828585611f8c565b94509450505050611be4565b8251604003611bdc5760208301516040840151611bd1868383612079565b935093505050611be4565b506000905060025b9250929050565b6000816004811115611bff57611bff6127e8565b03611c075750565b6001816004811115611c1b57611c1b6127e8565b03611c685760405162461bcd60e51b815260206004820152601860248201527f45434453413a20696e76616c6964207369676e617475726500000000000000006044820152606401610553565b6002816004811115611c7c57611c7c6127e8565b03611cc95760405162461bcd60e51b815260206004820152601f60248201527f45434453413a20696e76616c6964207369676e6174757265206c656e677468006044820152606401610553565b6003816004811115611cdd57611cdd6127e8565b03611d355760405162461bcd60e51b815260206004820152602260248201527f45434453413a20696e76616c6964207369676e6174757265202773272076616c604482015261756560f01b6064820152608401610553565b6004816004811115611d4957611d496127e8565b03610e6c5760405162461bcd60e51b815260206004820152602260248201527f45434453413a20696e76616c6964207369676e6174757265202776272076616c604482015261756560f01b6064820152608401610553565b600054610100900460ff16611e0c5760405162461bcd60e51b815260206004820152602b60248201527f496e697469616c697a61626c653a20636f6e7472616374206973206e6f74206960448201526a6e697469616c697a696e6760a81b6064820152608401610553565b610be133611a11565b600054610100900460ff16611e805760405162461bcd60e51b815260206004820152602b60248201527f496e697469616c697a61626c653a20636f6e7472616374206973206e6f74206960448201526a6e697469616c697a696e6760a81b6064820152608401610553565b6001606555565b600054610100900460ff16611ef25760405162461bcd60e51b815260206004820152602b60248201527f496e697469616c697a61626c653a20636f6e7472616374206973206e6f74206960448201526a6e697469616c697a696e6760a81b6064820152608401610553565b815160209283012081519190920120609791909155609855565b6000611f877f8b73c3c69bb8fe3d512ecc4cf759cc79239f7b179b0ffacaa9a75d522b39400f611f3b60975490565b6098546040805160208101859052908101839052606081018290524660808201523060a082015260009060c0016040516020818303038152906040528051906020012090509392505050565b905090565b6000807f7fffffffffffffffffffffffffffffff5d576e7357a4501ddfe92f46681b20a0831115611fc35750600090506003612070565b8460ff16601b14158015611fdb57508460ff16601c14155b15611fec5750600090506004612070565b6040805160008082526020820180845289905260ff881692820192909252606081018690526080810185905260019060a0016020604051602081039080840390855afa158015612040573d6000803e3d6000fd5b5050604051601f1901519150506001600160a01b03811661206957600060019250925050612070565b9150600090505b94509492505050565b6000807f7fffffffffffffffffffffffffffffffffffffffffffffffffffffffffffffff8316816120af60ff86901c601b6127fe565b90506120bd87828885611f8c565b935093505050935093915050565b60405180617d0001604052806103e8906020820280368337509192915050565b80356001600160a01b03811681146118b157600080fd5b60006020828403121561211457600080fd5b6105ca826120eb565b634e487b7160e01b600052604160045260246000fd5b604051601f8201601f1916810167ffffffffffffffff8111828210171561215c5761215c61211d565b604052919050565b600067ffffffffffffffff82111561217e5761217e61211d565b50601f01601f191660200190565b600082601f83011261219d57600080fd5b81356121b06121ab82612164565b612133565b8181528460208386010111156121c557600080fd5b816020850160208301376000918101602001919091529392505050565b600080604083850312156121f557600080fd5b82359150602083013567ffffffffffffffff81111561221357600080fd5b61221f8582860161218c565b9150509250929050565b60008060006060848603121561223e57600080fd5b612247846120eb565b9250602084013567ffffffffffffffff81111561226357600080fd5b61226f8682870161218c565b925050604084013590509250925092565b60006020828403121561229257600080fd5b5035919050565b600067ffffffffffffffff8211156122b3576122b361211d565b5060051b60200190565b600082601f8301126122ce57600080fd5b813560206122de6121ab83612299565b82815260059290921b840181019181810190868411156122fd57600080fd5b8286015b8481101561231f57612312816120eb565b8352918301918301612301565b509695505050505050565b600080600080600060a0868803121561234257600080fd5b61234b866120eb565b94506020860135935060408601359250606086013567ffffffffffffffff81111561237557600080fd5b612381888289016122bd565b95989497509295608001359392505050565b8015158114610e6c57600080fd5b600080604083850312156123b457600080fd5b6123bd836120eb565b915060208301356123cd81612393565b809150509250929050565b6000602082840312156123ea57600080fd5b813567ffffffffffffffff81111561240157600080fd5b61240d8482850161218c565b949350505050565b600080600080600060a0868803121561242d57600080fd5b612436866120eb565b94506020860135935061244b604087016120eb565b9250606086013567ffffffffffffffff81111561246757600080fd5b6123818882890161218c565b60006020828403121561248557600080fd5b813567ffffffffffffffff81111561249c57600080fd5b61240d848285016122bd565b60008060008060008060c087890312156124c157600080fd5b6124ca876120eb565b955060208088013595506124e0604089016120eb565b9450606088013567ffffffffffffffff808211156124fd57600080fd5b6125098b838c0161218c565b955060808a0135945060a08a013591508082111561252657600080fd5b818a0191508a601f83011261253a57600080fd5b81356125486121ab82612299565b81815260059190911b8301840190848101908d83111561256757600080fd5b8585015b8381101561259d57848135111561258157600080fd5b6125908f88833589010161218c565b835291860191860161256b565b508096505050505050509295509295509295565b600080604083850312156125c457600080fd5b50508035926020909101359150565b6000602082840312156125e557600080fd5b81516105ca81612393565b60005b8381101561260b5781810151838201526020016125f3565b8381111561261a576000848401525b50505050565b60006020828403121561263257600080fd5b815167ffffffffffffffff81111561264957600080fd5b8201601f8101841361265a57600080fd5b80516126686121ab82612164565b81815285602083850101111561267d57600080fd5b61268e8260208301602086016125f0565b95945050505050565b600081518084526126af8160208601602086016125f0565b601f01601f19169290920160200192915050565b60006001600160a01b03808816835260a060208401526126e660a0840188612697565b818716604085015285606085015283810360808501526127068186612697565b9998505050505050505050565b634e487b7160e01b600052603260045260246000fd5b634e487b7160e01b600052601160045260246000fd5b60006001820161275157612751612729565b5060010190565b6000825161276a8184602087016125f0565b9190910192915050565b60008282101561278657612786612729565b500390565b60006020828403121561279d57600080fd5b5051919050565b60006001600160a01b03808816835280871660208401525084604083015260a060608301526127d660a0830185612697565b90508260808301529695505050505050565b634e487b7160e01b600052602160045260246000fd5b6000821982111561281157612811612729565b50019056fe4f776e61626c653a2063616c6c6572206973206e6f7420746865206f776e6572a2646970667358221220a3eaa6dcccecae0f141afb1b564e0765be59cd7e298311ca9e42d7f50f2f080a64736f6c634300080f0033",
  "devdoc": {
    "kind": "dev",
    "methods": {
      "owner()": {
        "details": "Returns the address of the current owner."
      },
      "renounceOwnership()": {
        "details": "Leaves the contract without owner. It will not be possible to call `onlyOwner` functions anymore. Can only be called by the current owner. NOTE: Renouncing ownership will leave the contract without an owner, thereby removing any functionality that is only available to the owner."
      },
      "transferOwnership(address)": {
        "details": "Transfers ownership of the contract to a new account (`newOwner`). Can only be called by the current owner."
      }
    },
    "version": 1
  },
  "userdoc": {
    "kind": "user",
    "methods": {},
    "version": 1
  },
  "storageLayout": {
    "storage": [
      {
        "astId": 130,
        "contract": "contracts/Bridge.sol:Bridge",
        "label": "_initialized",
        "offset": 0,
        "slot": "0",
        "type": "t_uint8"
      },
      {
        "astId": 133,
        "contract": "contracts/Bridge.sol:Bridge",
        "label": "_initializing",
        "offset": 1,
        "slot": "0",
        "type": "t_bool"
      },
      {
        "astId": 608,
        "contract": "contracts/Bridge.sol:Bridge",
        "label": "__gap",
        "offset": 0,
        "slot": "1",
        "type": "t_array(t_uint256)50_storage"
      },
      {
        "astId": 10,
        "contract": "contracts/Bridge.sol:Bridge",
        "label": "_owner",
        "offset": 0,
        "slot": "51",
        "type": "t_address"
      },
      {
        "astId": 122,
        "contract": "contracts/Bridge.sol:Bridge",
        "label": "__gap",
        "offset": 0,
        "slot": "52",
        "type": "t_array(t_uint256)49_storage"
      },
      {
        "astId": 279,
        "contract": "contracts/Bridge.sol:Bridge",
        "label": "_status",
        "offset": 0,
        "slot": "101",
        "type": "t_uint256"
      },
      {
        "astId": 323,
        "contract": "contracts/Bridge.sol:Bridge",
        "label": "__gap",
        "offset": 0,
        "slot": "102",
        "type": "t_array(t_uint256)49_storage"
      },
      {
        "astId": 1228,
        "contract": "contracts/Bridge.sol:Bridge",
        "label": "_HASHED_NAME",
        "offset": 0,
        "slot": "151",
        "type": "t_bytes32"
      },
      {
        "astId": 1230,
        "contract": "contracts/Bridge.sol:Bridge",
        "label": "_HASHED_VERSION",
        "offset": 0,
        "slot": "152",
        "type": "t_bytes32"
      },
      {
        "astId": 1368,
        "contract": "contracts/Bridge.sol:Bridge",
        "label": "__gap",
        "offset": 0,
        "slot": "153",
        "type": "t_array(t_uint256)50_storage"
      },
      {
        "astId": 2082,
        "contract": "contracts/Bridge.sol:Bridge",
        "label": "minter",
        "offset": 0,
        "slot": "203",
        "type": "t_address"
      },
      {
        "astId": 2086,
        "contract": "contracts/Bridge.sol:Bridge",
        "label": "whitelistTokens",
        "offset": 0,
        "slot": "204",
        "type": "t_mapping(t_address,t_bool)"
      },
      {
        "astId": 2090,
        "contract": "contracts/Bridge.sol:Bridge",
        "label": "unlockHash",
        "offset": 0,
        "slot": "205",
        "type": "t_mapping(t_string_memory_ptr,t_bool)"
      },
      {
        "astId": 2092,
        "contract": "contracts/Bridge.sol:Bridge",
        "label": "maxAmount",
        "offset": 0,
        "slot": "206",
        "type": "t_uint256"
      },
      {
        "astId": 2094,
        "contract": "contracts/Bridge.sol:Bridge",
        "label": "minAmount",
        "offset": 0,
        "slot": "207",
        "type": "t_uint256"
      },
      {
        "astId": 2096,
        "contract": "contracts/Bridge.sol:Bridge",
        "label": "threshold",
        "offset": 0,
        "slot": "208",
        "type": "t_uint256"
      },
      {
        "astId": 2100,
        "contract": "contracts/Bridge.sol:Bridge",
        "label": "validators",
        "offset": 0,
        "slot": "209",
        "type": "t_mapping(t_address,t_bool)"
      }
    ],
    "types": {
      "t_address": {
        "encoding": "inplace",
        "label": "address",
        "numberOfBytes": "20"
      },
      "t_array(t_uint256)49_storage": {
        "base": "t_uint256",
        "encoding": "inplace",
        "label": "uint256[49]",
        "numberOfBytes": "1568"
      },
      "t_array(t_uint256)50_storage": {
        "base": "t_uint256",
        "encoding": "inplace",
        "label": "uint256[50]",
        "numberOfBytes": "1600"
      },
      "t_bool": {
        "encoding": "inplace",
        "label": "bool",
        "numberOfBytes": "1"
      },
      "t_bytes32": {
        "encoding": "inplace",
        "label": "bytes32",
        "numberOfBytes": "32"
      },
      "t_mapping(t_address,t_bool)": {
        "encoding": "mapping",
        "key": "t_address",
        "label": "mapping(address => bool)",
        "numberOfBytes": "32",
        "value": "t_bool"
      },
      "t_mapping(t_string_memory_ptr,t_bool)": {
        "encoding": "mapping",
        "key": "t_string_memory_ptr",
        "label": "mapping(string => bool)",
        "numberOfBytes": "32",
        "value": "t_bool"
      },
      "t_string_memory_ptr": {
        "encoding": "bytes",
        "label": "string",
        "numberOfBytes": "32"
      },
      "t_uint256": {
        "encoding": "inplace",
        "label": "uint256",
        "numberOfBytes": "32"
      },
      "t_uint8": {
        "encoding": "inplace",
        "label": "uint8",
        "numberOfBytes": "1"
      }
    }
  }
}